:100000000C9434000C943E000C943E000C943E0082
:100010000C943E000C943E000C943E000C943E0068
:100020000C943E000C943E000C943E000C943E0058
:100030000C943E000C943E000C943E000C943E0048
:100040000C943E000C943E000C943E000C943E0038
:100050000C943E000C943E000C943E000C943E0028
:100060000C943E000C943E0011241FBECFEFD8E04C
:10007000DEBFCDBF0E9459000C946E000C940000AE
:100080002FEF25B920E030E00FC0821793070CF462
:1000900015B84FEF59EF60E0415050406040E1F734
:1000A00000C000002F5F3F4F2F3F310571F36CF30D
:1000B00008958FEF84B901E010E0C0E0D0E0209710
:1000C00011F401E010E0CF3FD10511F40FEF1FEF65
:1000D000C00FD11FCE010E944000F1CFF894FFCF96
:00000001FF
