:100000000C9434000C943E000C943E000C943E0082
:100010000C943E000C943E000C943E000C943E0068
:100020000C943E000C943E000C943E000C94400056
:100030000C943E000C943E000C943E000C943E0048
:100040000C943E000C943E000C943E000C943E0038
:100050000C943E000C943E000C943E000C943E0028
:100060000C943E000C943E0011241FBECFEFD8E04C
:10007000DEBFCDBF0E944E000C9467000C940000C0
:100080001F920F920FB60F921124109285001092BA
:1000900084000F900FBE0F901F901895E1E8F0E0DC
:1000A00080818560808380E090E2909389008093D6
:1000B0008800E0E8F0E080818064808381E084B99A
:1000C000EFE6F0E08081826080837894FFCFF8943F
:0200D000FFCF60
:00000001FF
